:100000000C9491010C94B9010C94B9010C94B901B0
:100010000C94B9010C94B9010C94B9010C94B90178
:100020000C94B9010C94B9010C944F070C9413076C
:100030000C94B9010C94B9010C94B9010C94B90158
:100040000C94B9010C94B9010C94B9010C94B90148
:100050000C94B9010C94B9010C94B9010C94C90623
:100060000C94B9010C94B9010C94B9010C94B90128
:100070000C94B9010C94B9010C94B9010C94B90118
:100080000C94B9010C94B9010C94B9010C94B90108
:100090000C94B9010C94B9010C94B9010C94B901F8
:1000A0000C94B9010C94B9010C94B901120100022D
:1000B000FFFFFF405E048E021401010203010501EF
:1000C0000905A101150025013500450175019510AF
:1000D000050919012910810205012507463B017513
:1000E0000495016514093981426500950181012655
:1000F000FF0046FF000930093109320935750895BE
:100100000481020600FF0920950181020A2126953B
:10011000089102C012010002000000400D0F920081
:10012000000101020001080331002E003000000030
:10013000240350004F004B004B0045004E002000B0
:1001400043004F004E00540052004F004C004C0042
:1001500045005200000040034B00410044004500B0
:1001600020002D0020004B00690063006B00200080
:100170004100730073002000440079006E006100AC
:100180006D0069006300200045006E0063006F0091
:1001900064006500720000001C0348004F0052001C
:1001A0004900200043004F002E002C004C0054005A
:1001B00044002E0000001A036B006100640065001B
:1001C00076006900630065002E006E006500740013
:1001D0000000040309040902290001010080FA0952
:1001E0000400000203000000092111010001225651
:1001F00000070502034000100705810340000109C4
:10020000029900040100A0FA0904000002FF5D0148
:1002100000112100010125811400000000130108D4
:1002200000000705810320000107050103200008E5
:100230000904010004FF5D03001B2100010101828C
:100240004001022016830000000000001603000099
:1002500000000000070582032000020705020320BA
:100260000004070583032000400705030320001056
:100270000904020001FF5D0200092100010122843E
:100280000700070584032000100904030000FFFD98
:1002900013040641000101030000000025002800AE
:1002A0002B002E00310000000000240027002A004F
:1002B0002D003000000000002300260029002C0043
:1002C0002F000404040404030405020202020403D0
:1002D00002020202060606060606040402020204E0
:1002E0000404080201104080401020408040800833
:1002F00002040180402010020110801020404020A4
:100300000000000200090F0000030401000C0000BF
:1003100000000000000000000000000000000000DD
:10032000250F11241FBECFEFDAE0DEBFCDBF11E0F5
:10033000A0E0B1E0E6E2FFE102C005900D92AA3034
:10034000B107D9F722E0AAE0B1E001C01D92A639B9
:10035000B207E1F711E0C1E9D1E004C02197FE0145
:100360000E947F0FC039D107C9F70E9426080C945C
:10037000910F0C940000282F30E0F901E050FD4F60
:100380009491F901EF51FD4F84912E533D4FF901A6
:100390002491222309F45BC09923E9F091509F3006
:1003A000D0F4E92FF0E0E952FE4F0C947F0F0202E7
:1003B0000602E601FA01FE01EB01EB01EB01090285
:1003C0000F02130217021D02EB012102909180001F
:1003D0009F7790938000E22FF0E0EE0FFF1FEC5428
:1003E000FD4FA591B491EC91E82381E090E089F56F
:1003F00080E00895909180009F7DEBCF90918000E8
:10040000977FE7CF94B59F7794BDE5CF94B59F7D57
:10041000FBCF909190009F7790939000DCCF9091CC
:1004200090009F7DF9CF90919000977FF5CF9091AC
:10043000C0009F779093C000CECF9091C0009F7D69
:10044000F9CF9091C200977F9093C200C4CF80E013
:1004500090E00895CF93DF9390E0FC01EF51FD4FC2
:1004600024918E539D4FFC0184918823C9F090E024
:10047000880F991FFC01EA55FD4FA591B491FC012D
:10048000E856FD4FC591D49161110DC09FB7F89406
:100490008C91209582238C938881282328839FBF69
:1004A000DF91CF910895623051F49FB7F8943C9159
:1004B000822F809583238C93E8812E2BEFCF8FB7EB
:1004C000F894EC912E2B2C938FBFEACF862F642FBC
:1004D0000C942A023FB7F894809192029091930273
:1004E000A0919402B091950226B5A89B05C02F3F1C
:1004F00019F00196A11DB11D3FBFBA2FA92F982F4A
:100500008827BC01CD01620F711D811D911D42E044
:10051000660F771F881F991F4A95D1F708952FB747
:10052000F89460918E0270918F0280919002909168
:1005300091022FBF0895FC01808580FD04C082FBDD
:10054000882780F9089580E00895FC0181890E9440
:10055000BB0121E0892B09F420E0822F08951F932D
:10056000CF93DF93EC01162F62E0812F0E942A02C5
:10057000198B1886CE010E94A502882319F0888560
:10058000836088870E948F026A837B838C839D832C
:10059000DF91CF911F910895CF92DF92EF92FF925A
:1005A0000F931F93CF93DF93EC0188858B7F888710
:1005B000CE010E94A502182F888586958170181794
:1005C000B9F00E948F026A837B838C839D83888528
:1005D00092E089278887888582FB882780F9DF91C8
:1005E000CF911F910F91FF90EF90DF90CF900895E2
:1005F0000E948F02CA80DB80EC80FD80AB01BC01D1
:100600004C195D096E097F098E819F81B0E0A0E0E1
:10061000481759076A077B07F0F288858170181719
:10062000D1F20E948F026A837B838C839D838885AD
:1006300091E08927846088870E948F0209851A8546
:100640002B853C85601B710B820B930B6D877E871E
:100650008F87988B0E948F0269877A878B879C8708
:10066000BACFEF92FF920F931F93CF93DF93FB01CB
:10067000D901E701882331F1442321F1013011052B
:10068000E9F068F00230110569F00330110571F0EE
:10069000DF91CF911F910F91FF90EF9008951C92E1
:1006A0001082F6CF108281E08C93F2CF88819981FD
:1006B00081309105B9F398F3029751F781E0808377
:1006C0001C92E6CF4C938083882339F081E090E040
:1006D0004111DECF99838883DBCF82E090E0411126
:1006E000F9CFD6CFFC012091100130911101621792
:1006F000730708F49B0190E02115310541F4911135
:1007000006C08091E80082FF33C080E008958091A8
:100710008C028823C9F18530C9F18091E80083FDFE
:1007200031C08091E80082FDECCF8091E80080FF2D
:10073000E3CF4091F3008091F200542F482F211510
:10074000310519F04034510558F091E0403451051D
:1007500009F090E04091E8004E774093E800CCCF5C
:1007600081918093F100215031094F5F5F4FE7CFB6
:1007700080918C02882341F0853041F08091E8001F
:1007800083FFBFCF81E0089582E0089583E008955C
:100790002091E4003091E50085E69091EC0090FF17
:1007A00006C09091E80090FF06C080E00895909107
:1007B000E80092FDFACF90918C02992391F0953048
:1007C00091F09091EB0095FD10C04091E4005091A4
:1007D000E5002417350709F381509A01F1F684E00A
:1007E000089582E0089583E0089581E0089580915E
:1007F0000A0187FF13C08091E80082FF06C0809144
:10080000E8008B778093E80004C080918C0281110E
:10081000F2CF089580918C028823D9F38091E8006B
:1008200080FFF8CF8091E8008E77ECCF982F9093DF
:10083000E900242F762F50E0891731F07091EC00F9
:100840002091ED005091F00021FD07C09F5F97308F
:1008500071F78093E90081E008953091EB003E7FCD
:100860003093EB003091ED003D7F3093ED003091FF
:10087000EB0031603093EB007093EC002093ED00BF
:100880005093F0002091EE0027FDE0CF80E0089526
:100890000F931F93CF93DF93CDB7DEB7AA970FB611
:1008A000F894DEBF0FBECDBFEAE0F1E082E191E057
:1008B0002091F10021938E179F07D1F780918B0231
:1008C0008823C1F080910B018130A1F480910A014D
:1008D000813A81F48091E800877F8093E80064E1A9
:1008E00070E087E792E00E9472038091E8008B77C6
:1008F0008093E8008091E80083FF44C010910A01D2
:1009000090910B019A3008F03DC0E92FF0E0E557D7
:10091000FB4F0C947F0F9504BB04C204BB04C204BC
:100920001A053C05C20443065006103889F01238F7
:1009300049F580910E018F70873020F58093E90092
:100940008091EB0085FB882780F91092E90006C0B2
:100950008091130190911401911182609091E800AF
:10096000977F9093E8008093F1001092F1008091BE
:10097000E8008E772EC0812F8D7F21F41123D9F0CE
:10098000123061F18091E80083FF0AC08091E80095
:10099000877F8093E8008091EB0080628093EB007A
:1009A000AA960FB6F894DEBF0FBECDBFDF91CF91F0
:1009B0001F910F91089580910C01813019F79330A8
:1009C00009F080E0809314011092E9008091E80022
:1009D000877F8093E8000E94F703D4CF80910C01B9
:1009E0008111F2CF80910E018F702FEF280F2630EA
:1009F00048F68093E9002091EB0020FFE5CF93308B
:100A000031F48091EB0080628093EB00DDCF909118
:100A1000EB0090619093EB0021E030E001C0220FE9
:100A20008A95EAF72093EA001092EA008091EB00A1
:100A30008860EACF1111A6CF10910C011F77809129
:100A4000E3008078812B8093E3008091E800877F2A
:100A50008093E8000E94F7038091E80080FFFCCFBC
:100A60008091E30080688093E30083E0111101C06E
:100A700082E080938C0286CF1058123008F082CF2B
:100A800080910C0190910D018C3D23E09207A1F51E
:100A900083E08A838AE289834FB7F894DE01139654
:100AA00020E03EE051E2E32FF0E050935700E49164
:100AB00020FF03C0E295EF703F5FEF708E2F90E054
:100AC000EA30C0F0C7968D939D932F5F243159F77C
:100AD0004FBF8091E800877F8093E8006AE270E072
:100AE000CE0101960E9472038091E8008B7780937B
:100AF000E80048CFC096E7CF292F332723303105B0
:100B000009F44CC088F42130310509F43EC022308C
:100B1000310509F037CF8091120181117BC089E244
:100B200090E0E6EDF1E00CC02132310509F468C037
:100B300086E590E0EEEBF0E02232310509F022CFBD
:100B40002091E800277F2093E80020911001309148
:100B500011018217930708F49C0140E0211531052B
:100B600009F05DC041115BC08091E80082FDBCCFFF
:100B700080918C02882309F4B7CF853009F4B4CF73
:100B80008091E80083FFF0CFAFCF809112018111F7
:100B90003CC082E190E0E4E1F1E0D2CF99278130DE
:100BA0009105D1F070F08230910509F1039709F0B9
:100BB000E9CEE6E2F1E0E4918E2F90E0E6E2F1E0AA
:100BC00007C0E2EDF1E0E4918E2F90E0E2EDF1E07C
:100BD000009709F4D7CEB4CF80911201E6EBF1E093
:100BE000811102C0E8E9F1E0849190E0F1CF8091B9
:100BF0001201E6E5F1E08111F7CFE0E3F1E0F4CF97
:100C000089E090E0E8EEF1E09BCF82E190E0ECEA51
:100C1000F0E096CF89E990E0EFEFF1E091CF80919D
:100C20008C02882309F460CF853009F45DCF809170
:100C3000E80083FD59CF8091E80082FD95CF809137
:100C4000E80080FF8BCF8091F3009091F20089271C
:100C5000982789272115310519F08034910558F01E
:100C600041E08034910509F040E08091E8008E7702
:100C70008093E80073CF44914093F1003196215066
:100C800031090196E7CF103809F07CCE8091E80059
:100C9000877F8093E800809115018093F10067CEF3
:100CA000111170CE00910C01023008F06BCE8091D2
:100CB000E800877F8093E800009315010E94F70306
:100CC0000023F9F084E080938C0280918B028111E3
:100CD0001EC042E360EC82E00E94160420E430E093
:100CE00088E090E01F5F880F991F82179307D0F369
:100CF000412F4295407F426061EC81E00E941604E2
:100D000041CE8091E30087FDDDCF81E0DCCF42E280
:100D100061EC83E00E94160424E130E0E1CFFF9211
:100D20000F931F93CF93DF93EC018B01FB01F080B6
:100D30000E94690FF81621F06F2DCE010E94710FED
:100D4000F801F1802196CE010E94690FF81621F07A
:100D50006F2DCE010E94710FC801DF91CF911F91BD
:100D60000F91FF9008950F931F93CF93DF938C0102
:100D7000EB010E94690F8883C80101960E94690FE8
:100D80008983CE01DF91CF911F910F9108950E9429
:100D9000850F1F920F920FB60F9211242F933F933E
:100DA0008F939F93AF93BF9380918E0290918F0208
:100DB000A0919002B091910230918D0223E0230F17
:100DC0002D3758F50196A11DB11D20938D028093FA
:100DD0008E0290938F02A0939002B0939102809123
:100DE000920290919302A0919402B0919502019683
:100DF000A11DB11D8093920290939302A09394023F
:100E0000B0939502BF91AF919F918F913F912F9198
:100E10000F900FBE0F901F90189526E8230F029693
:100E2000A11DB11DD2CF1F920F920FB60F921124A8
:100E30002F933F934F935F936F937F938F939F93E2
:100E4000AF93BF93CF93EF93FF93C091E900CF701F
:100E50008091EC001092E9008091F000877F8093F0
:100E6000F00078940E9448041092E9008091F0000C
:100E700088608093F000C093E900FF91EF91CF91DB
:100E8000BF91AF919F918F917F916F915F914F91A2
:100E90003F912F910F900FBE0F901F9018951F92AA
:100EA0000F920FB60F9211242F933F934F935F939E
:100EB0006F937F938F939F93AF93BF93EF93FF9322
:100EC0008091E10082FF09C08091E20082FF05C0AD
:100ED0008091E1008B7F8093E1008091DA0080FFB8
:100EE00017C08091D80080FF13C08091DA008E7FF8
:100EF0008093DA008091D90080FF8CC080E189BDA9
:100F000082E189BD09B400FEFDCF81E080938C02AF
:100F10008091E10080FF17C08091E20080FF13C044
:100F20008091E2008E7F8093E2008091E2008061F8
:100F30008093E2008091D80080628093D80019BC31
:100F400085E080938C028091E10084FF27C080912E
:100F5000E20084FF23C080E189BD82E189BD09B43C
:100F600000FEFDCF8091D8008F7D8093D8008091C6
:100F7000E1008F7E8093E1008091E2008F7E80937C
:100F8000E2008091E20081608093E200809115018F
:100F9000882309F443C084E080938C028091E100AF
:100FA00083FF27C08091E20083FF23C08091E1008E
:100FB000877F8093E10082E080938C02109215017C
:100FC0008091E1008E7F8093E1008091E2008E7F2E
:100FD0008093E2008091E20080618093E20042E32E
:100FE00060E080E00E9416048091F00088608093A9
:100FF000F000FF91EF91BF91AF919F918F917F9101
:101000006F915F914F913F912F910F900FBE0F9075
:101010001F90189519BC10928C027ACF8091E30032
:1010200087FD02C081E0B8CF83E0B6CFFC01128219
:101030001382148215828AE090E09783868310865B
:1010400086E091E091838083118A0895CF93DF93A6
:1010500000D000D000D01F92CDB7DEB7789484B511
:10106000826084BD84B5816084BD85B5826085BDA4
:1010700085B5816085BD80916E00816080936E0032
:101080001092810080918100826080938100809124
:1010900081008160809381008091800081608093D5
:1010A00080008091910082608093910080919100F6
:1010B0008160809391008091900081608093900086
:1010C0008091C10084608093C1008091C1008260E2
:1010D0008093C1008091C10081608093C1008091A4
:1010E000C30081608093C3008091C00082608093C0
:1010F000C0008091C20081608093C20080917A001C
:10110000846080937A0080917A00826080937A0074
:1011100080917A00816080937A0080917A00806863
:1011200080937A0010924C0261E572E090E080E0DA
:101130000E94B30682E090E00E94690F809319013B
:1011400067E572E084E090E00E94B30660E071E041
:1011500086E090E00E94B30667E171E088E090E0ED
:101160000E94B306809117019091180110E0029738
:1011700028F0109218011092170111E087E00E94E8
:10118000BB01892B69F48091170190911801019797
:1011900039F081E090E0909318018093170111E0FD
:1011A00084E00E94BB01892B91F4809117019091FA
:1011B0001801892B09F41AC6109218011092170110
:1011C00067E171E088E090E00E948F0602C0111193
:1011D000F7CF8091170190911801019709F008C687
:1011E00064E070E08AE392E00E94AF0267E070E0A2
:1011F00088E292E00E94AF0263E070E086E192E054
:101200000E94AF0265E070E084E092E00E94AF02CD
:101210006EE070E082EF91E00E94AF026AE070E061
:1012200080EE91E00E94AF026FE070E08EEC91E002
:101230000E94AF0260E170E08CEB91E00E94AF028F
:1012400065E170E08AEA91E00E94AF0264E170E03B
:1012500088E991E00E94AF0268E070E086E891E0E2
:101260000E94AF0263E170E084E791E00E94AF0268
:1012700066E070E082E691E00E94AF0269E070E013
:1012800080E591E00E94AF0262E070E08EE391E0C1
:101290000E94AF0262E170E08CE291E00E94AF0236
:1012A00061E070E08AE191E00E94AF0281E090E0AD
:1012B000909341028093400290932F0280932E02DC
:1012C00090931D0280931C0290930B0280930A025C
:1012D0009093F9018093F8019093E7018093E601E0
:1012E0009093D5018093D4019093C3018093C20160
:1012F0009093B1018093B00190939F0180939E01E0
:1013000090938D0180938C0190937B0180937A015F
:1013100090936901809368019093570180935601DF
:10132000909345018093440190933301809332015F
:1013300090932101809320010E946A024B015C017D
:10134000E4EFCE2EDD24D394E12CF12C0E946A022E
:10135000681979098A099B09683E734081059105DE
:10136000A8F321E0C21AD108E108F10888EE880E3E
:1013700083E0981EA11CB11CC114D104E104F10446
:1013800029F70091190182E10E94BB01892B09F024
:1013900079C31092190110911901011759F082E0D7
:1013A00090E00E94690F181729F0612F82E090E009
:1013B0000E94710F0091000110910101E09057020D
:1013C000F090580281E00E94BB01892B41F41092F9
:1013D000010110920001109258021092570286E00B
:1013E0000E94BB01892B61F481E090E090930101A0
:1013F0008093000183E090E090935802809357021D
:1014000089E00E94BB01892B51F481E090E0909328
:1014100001018093000110925802109257028091AE
:10142000570290915802E816F90631F067E572E02C
:1014300084E090E00E948F0680910001909101016C
:101440000817190731F060E071E086E090E00E9433
:101450008F068091190180938B028093120184B7CB
:10146000877F84BF0FB6F894A8958091600088614B
:1014700080936000109260000FBE80E830E020E0B2
:101480000FB6F89480936100209361000FBE8091A5
:10149000D8008F7E8093D8008091D70081608093A0
:1014A000D70084E082BF81E0809316018091D8004C
:1014B0008E7F8093D8001092E2001092DA00109292
:1014C000E1008091D8008F778093D8008091D80078
:1014D00080688093D8008091D8008F7D8093D80059
:1014E00019BC10928C0210921501109214011092E6
:1014F00013018091E0008B7F8093E0008091D80001
:1015000081608093D80042E360E080E00E9416048E
:101510008091E1008E7F8093E1008091E200816004
:101520008093E2008091E20088608093E2008091E5
:10153000E0008E7F8093E0008091D80080618093EE
:10154000D8007894CC24C394DC2CAA24AA945EEF0F
:10155000B52E62E0462E512C66246394712C0E94B5
:101560008F028AE392E00E94CC0288E292E00E941D
:10157000CC0286E192E00E94CC0284E092E00E94DC
:10158000CC02309142022091300290911E02809153
:101590000C0232FD06C022FD04C092FD02C082FF93
:1015A00010C03095317030935302209521702093F4
:1015B000540290959170909355028095817080931C
:1015C000560282EF91E00E94CC02882331F082EF34
:1015D00091E00E949B0280935D0280EE91E00E9468
:1015E000CC02882331F080EE91E00E949B02809330
:1015F0005E028EEC91E00E94CC02882331F08EECEA
:1016000091E00E949B0280935F028CEB91E00E942C
:10161000CC02882331F08CEB91E00E949B028093F6
:1016200060028AEA91E00E94CC02882331F08AEAC3
:1016300091E00E949B028093610288E991E00E9400
:10164000CC02882331F088E991E00E949B028093CC
:10165000620286E891E00E94CC02882331F086E89D
:1016600091E00E949B028093630284E791E00E94D4
:10167000CC02882331F084E791E00E949B028093A2
:10168000640282E691E00E94CC02882331F082E677
:1016900091E00E949B0280936B0280E591E00E94A2
:1016A000CC02882331F080E591E00E949B02809378
:1016B0006C028EE391E00E94CC02882331F08EE32D
:1016C00091E00E949B02809365028CE291E00E946F
:1016D000CC02882331F08CE291E00E949B0280933F
:1016E00066028AE191E00E94CC02882331F08AE10F
:1016F00091E00E949B0280936D0280916502882395
:1017000029F180916602882309F180914C028111B0
:10171000D6C1209151023091520280915502882306
:1017200009F4BAC170925202609251028091510242
:10173000909152022817390731F061E572E090E08C
:1017400080E00E948F0681E080934C0219821A8209
:101750001B821C8280900001909001010091570231
:10176000109158022FE4E22E22E0F22E9E012C5F0F
:101770003F4F40915602BE016D5F7F4F80915502F1
:101780000E9431033DE4E32E32E0F32E84019E01FA
:101790002E5F3F4F40915402BE016F5F7F4F80919B
:1017A00053020E94310320915102309152028981EB
:1017B00090E82115310509F485C12230310509F081
:1017C000C7C19093670290936802909369029093C7
:1017D0006A02809359028A8180935A028B81809396
:1017E0005B028C8180935C028091590220918B0274
:1017F000222309F4EDC1882329F0809179028160C8
:101800008093790280915A02882329F0809179028D
:1018100082608093790280915B02882329F0809115
:10182000790284608093790280915C02882329F098
:1018300080917902886080937902309167023C9DA3
:10184000C0013D9D900D1124905890937E0280938D
:101850007D02309168023A9DC0013B9D900D11249C
:10186000815090489093800280937F02309169026A
:101870003C9DC0013D9D900D112490589093820293
:101880008093810230916A023A9DC0013B9D900D88
:101890001124815090489093840280938302809118
:1018A0006502882329F08091790280618093790212
:1018B00080916602882329F080917902806280936A
:1018C000790280916B02882329F0809179028064EB
:1018D0008093790280916C02882329F080917902AB
:1018E00080688093790280915D02882329F080913D
:1018F0007A02806280937A0280915E02882329F0C6
:1019000080917A02806180937A0280915F028823BD
:1019100029F080917A02806880937A028091600237
:10192000882329F080917A02806480937A028091E2
:101930006102882329F080917A02816080937A0283
:1019400080916202882329F080917A0282608093DC
:101950007A0280916D02882329F080917A02846056
:1019600080937A0280916302882319F08FEF80932D
:101970007B0280916402882319F08FEF80937C02B0
:1019800080918C02843009F05EC094E1292E312CC4
:1019900007E712E021112BC082E08093E9008091DB
:1019A000E80082FF1FC08091E80085FF16C00E94FA
:1019B000C803811112C007E010E0CE0101967C013E
:1019C0008091E80085FDEFC18091E8008B778093DE
:1019D000E8000E94C803882399F38091E8008B7780
:1019E0008093E80088E0282E312C0FE612E081E099
:1019F0008093E9008091E80080FF25C00E94C80321
:101A000081110FC0710148018091E80085FDD5C1A9
:101A10008091E8008E778093E8000E94C8038823B5
:101A200099F38091E8008E778093E800A10170E03F
:101A300060E0C8010E948A0F80918B02882319F010
:101A400084E1F801818380918C02882399F01091C0
:101A5000E9001F708091EC0080FFBAC180E8182B6C
:101A60001092E9008091E80083FD0E9448041F70F5
:101A70001093E90080E090E0892B09F470CD0E947A
:101A800000006DCD82E00E94BB01892B09F083CC60
:101A900081E0809319017FCC80915602882329F040
:101AA000109252021092510241CE8091530288232B
:101AB00009F43CCE509252024092510237CE10921D
:101AC0004C0244CE909367029093680210925902A0
:101AD00010925A0210925B0210925C02882389F0E5
:101AE0009C81992331F010926A028FEF80936902F2
:101AF0007BCE9B81992329F010926A021092690291
:101B000073CE9A81992309F465C19C81992321F0B0
:101B10008FEF80936A02EACF9B81992321F08FEFA8
:101B200080936A02EBCF882321F010926A0280E84A
:101B3000DDCF8FEF80936A02FACF8C81882321F06A
:101B40008FEF809369024EC180E8809369024BC198
:101B50009093690290936A021092590210925A026D
:101B600010925B0210925C02882349F09C819923B9
:101B700031F0109268028FEF8093670235CE9A8120
:101B8000992309F43EC19C81992321F08FEF809322
:101B90006802F2CF9B81992309F43FC18FEF8093B4
:101BA00068021092670220CE992319F01092680201
:101BB000F8CF1092680280E8DFCF8C81882321F073
:101BC0008FEF8093670225C180E88093670222C16E
:101BD000882341F090915C02992321F081E0809369
:101BE000710217C090915A02992309F41CC1909177
:101BF0005C02992311F083E0F2CF90915B0299236C
:101C000009F41FC185E0EBCF87E09111E8CF109276
:101C100071028091670280937202809168028093C2
:101C20007302809169028093740280916A028093AA
:101C3000750280915D02882349F080916F02909136
:101C4000700284609093700280936F0280915E02B4
:101C5000882349F080916F02909170028260909386
:101C6000700280936F0280915F02882349F0809117
:101C70006F029091700288609093700280936F025F
:101C800080916002882349F080916F0290917002E8
:101C900081609093700280936F028091610288232B
:101CA00049F080916F029091700280619093700270
:101CB00080936F0280916202882349F080916F02C5
:101CC0009091700280629093700280936F02809175
:101CD0006302882349F080916F02909170028064C2
:101CE0009093700280936F0280916402882349F080
:101CF00080916F029091700280689093700280933F
:101D00006F0280916502882349F080916F02909163
:101D1000700292609093700280936F0280916602CD
:101D2000882349F080916F029091700291609093A6
:101D3000700280936F0280916D02882349F0809138
:101D40006F029091700290619093700280936F0285
:101D500080916B02882349F080916F02909170020C
:101D600094609093700280936F0280916C0288233C
:101D700049F080916F029091700298609093700288
:101D800080936F0280916E02882309F4F9CD8091CF
:101D90006F029091700290629093700280936F0234
:101DA000EFCD88E01CCF8091F100F70181937F0196
:101DB0000150110909F004CE10CEF40181914F01B8
:101DC0008093F100F1E0EF1AF10809F01DCE29CE61
:101DD00080E045CE8111A9CE8B81882309F4ADCE58
:101DE0001092690280E880936A02FECC1111E8C962
:101DF00067E070E08AE392E00E94AF0264E070E086
:101E0000F7C99B818111D0CE992309F4D6CE1092C7
:101E1000670280E880936802E7CC8111CACE8FEF19
:101E200080936802C8CE90915B028111EDCE86E06E
:101E30009111D5CE80915C02882309F4B2CF82E063
:101E4000CECE8111E4CE84E0CACE8AE392E00E9435
:101E5000160888E292E00E94160886E192E00E944D
:101E6000160884E092E00E94160882EF91E00E943A
:101E7000160880EE91E00E9416088EEC91E00E9418
:101E800016088CEB91E00E9416088AEA91E00E9405
:101E9000160888E991E00E94160886E891E00E9401
:101EA000160884E791E00E94160882E691E00E94FD
:101EB000160880E591E00E9416088EE391E00E94EA
:101EC00016088CE291E00E9416088AE191E00C94D9
:101ED0001608F999FECF92BD81BDF89A992780B571
:101EE0000895262FF999FECF1FBA92BD81BD20BD5E
:101EF0000FB6F894FA9AF99A0FBE01960895EE0F6C
:101F0000FF1F0590F491E02D099481E090E0F89492
:101F10000C94910FDC0101C06D9341505040E0F7EB
:061F20000895F894FFCFC4
:0A1F2600010000000000A5026602A1
:00000001FF
