:100000000C9491010C94B9010C94B9010C94B901B0
:100010000C94B9010C94B9010C94B9010C94B90178
:100020000C94B9010C94B9010C944F070C9413076C
:100030000C94B9010C94B9010C94B9010C94B90158
:100040000C94B9010C94B9010C94B9010C94B90148
:100050000C94B9010C94B9010C94B9010C94C90623
:100060000C94B9010C94B9010C94B9010C94B90128
:100070000C94B9010C94B9010C94B9010C94B90118
:100080000C94B9010C94B9010C94B9010C94B90108
:100090000C94B9010C94B9010C94B9010C94B901F8
:1000A0000C94B9010C94B9010C94B901120100022D
:1000B000FFFFFF405E048E021401010203010501EF
:1000C0000905A101150025013500450175019510AF
:1000D000050919012910810205012507463B017513
:1000E0000495016514093981426500950181012655
:1000F000FF0046FF000930093109320935750895BE
:100100000481020600FF0920950181020A2126953B
:10011000089102C012010002000000400D0F920081
:10012000000101020001080331002E003000000030
:10013000240350004F004B004B0045004E002000B0
:1001400043004F004E00540052004F004C004C0042
:1001500045005200000040034B00410044004500B0
:1001600020002D0020004B00690063006B00200080
:100170004100730073002000440079006E006100AC
:100180006D0069006300200045006E0063006F0091
:1001900064006500720000001C0348004F0052001C
:1001A0004900200043004F002E002C004C0054005A
:1001B00044002E0000001A036B006100640065001B
:1001C00076006900630065002E006E006500740013
:1001D0000000040309040902290001010080FA0952
:1001E0000400000203000000092111010001225651
:1001F00000070502034000100705810340000109C4
:10020000029900040100A0FA0904000002FF5D0148
:1002100000112100010125811400000000130108D4
:1002200000000705810320000107050103200008E5
:100230000904010004FF5D03001B2100010101828C
:100240004001022016830000000000001603000099
:1002500000000000070582032000020705020320BA
:100260000004070583032000400705030320001056
:100270000904020001FF5D0200092100010122843E
:100280000700070584032000100904030000FFFD98
:1002900013040641000101030000000025002800AE
:1002A0002B002E00310000000000240027002A004F
:1002B0002D003000000000002300260029002C0043
:1002C0002F000404040404030405020202020403D0
:1002D00002020202060606060606040402020204E0
:1002E0000404080201104080401020408040800833
:1002F00002040180402010020110801020404020A4
:100300000000000200090F0000030401000C0000BF
:1003100000000000000000000000000000000000DD
:10032000250F11241FBECFEFDAE0DEBFCDBF11E0F5
:10033000A0E0B1E0E6E2FFE102C005900D92AA3034
:10034000B107D9F722E0AAE0B1E001C01D92A639B9
:10035000B207E1F711E0C1E9D1E004C02197FE0145
:100360000E947F0FC039D107C9F70E9426080C945C
:10037000910F0C940000282F30E0F901E050FD4F60
:100380009491F901EF51FD4F84912E533D4FF901A6
:100390002491222309F45BC09923E9F091509F3006
:1003A000D0F4E92FF0E0E952FE4F0C947F0F0202E7
:1003B0000602E601FA01FE01EB01EB01EB01090285
:1003C0000F02130217021D02EB012102909180001F
:1003D0009F7790938000E22FF0E0EE0FFF1FEC5428
:1003E000FD4FA591B491EC91E82381E090E089F56F
:1003F00080E00895909180009F7DEBCF90918000E8
:10040000977FE7CF94B59F7794BDE5CF94B59F7D57
:10041000FBCF909190009F7790939000DCCF9091CC
:1004200090009F7DF9CF90919000977FF5CF9091AC
:10043000C0009F779093C000CECF9091C0009F7D69
:10044000F9CF9091C200977F9093C200C4CF80E013
:1004500090E00895CF93DF9390E0FC01EF51FD4FC2
:1004600024918E539D4FFC0184918823C9F090E024
:10047000880F991FFC01EA55FD4FA591B491FC012D
:10048000E856FD4FC591D49161110DC09FB7F89406
:100490008C91209582238C938881282328839FBF69
:1004A000DF91CF910895623051F49FB7F8943C9159
:1004B000822F809583238C93E8812E2BEFCF8FB7EB
:1004C000F894EC912E2B2C938FBFEACF862F642FBC
:1004D0000C942A023FB7F89480911701909118016B
:1004E000A0911901B0911A0126B5A89B05C02F3F14
:1004F00019F00196A11DB11D3FBFBA2FA92F982F4A
:100500008827BC01CD01620F711D811D911D42E044
:10051000660F771F881F991F4A95D1F708952FB747
:10052000F8946091130170911401809115019091DC
:1005300016012FBF0895FC01808580FD04C082FB59
:10054000882780F9089580E00895FC0181890E9440
:10055000BB0121E0892B09F420E0822F08951F932D
:10056000CF93DF93EC01162F62E0812F0E942A02C5
:10057000198B1886CE010E94A502882319F0888560
:10058000836088870E948F026A837B838C839D832C
:10059000DF91CF911F910895CF92DF92EF92FF925A
:1005A0000F931F93CF93DF93EC0188858B7F888710
:1005B000CE010E94A502182F888586958170181794
:1005C000B9F00E948F026A837B838C839D83888528
:1005D00092E089278887888582FB882780F9DF91C8
:1005E000CF911F910F91FF90EF90DF90CF900895E2
:1005F0000E948F02CA80DB80EC80FD80AB01BC01D1
:100600004C195D096E097F098E819F81B0E0A0E0E1
:10061000481759076A077B07F0F288858170181719
:10062000D1F20E948F026A837B838C839D838885AD
:1006300091E08927846088870E948F0209851A8546
:100640002B853C85601B710B820B930B6D877E871E
:100650008F87988B0E948F0269877A878B879C8708
:10066000BACFEF92FF920F931F93CF93DF93FB01CB
:10067000D901E701882331F1442321F1013011052B
:10068000E9F068F00230110569F00330110571F0EE
:10069000DF91CF911F910F91FF90EF9008951C92E1
:1006A0001082F6CF108281E08C93F2CF88819981FD
:1006B00081309105B9F398F3029751F781E0808377
:1006C0001C92E6CF4C938083882339F081E090E040
:1006D0004111DECF99838883DBCF82E090E0411126
:1006E000F9CFD6CFFC012091100130911101621792
:1006F000730708F49B0190E02115310541F4911135
:1007000006C08091E80082FF33C080E008958091A8
:1007100095028823C9F18530C9F18091E80083FDF5
:1007200031C08091E80082FDECCF8091E80080FF2D
:10073000E3CF4091F3008091F200542F482F211510
:10074000310519F04034510558F091E0403451051D
:1007500009F090E04091E8004E774093E800CCCF5C
:1007600081918093F100215031094F5F5F4FE7CFB6
:1007700080919502882341F0853041F08091E80016
:1007800083FFBFCF81E0089582E0089583E008955C
:100790002091E4003091E50085E69091EC0090FF17
:1007A00006C09091E80090FF06C080E00895909107
:1007B000E80092FDFACF90919502992391F095303F
:1007C00091F09091EB0095FD10C04091E4005091A4
:1007D000E5002417350709F381509A01F1F684E00A
:1007E000089582E0089583E0089581E0089580915E
:1007F0000A0187FF13C08091E80082FF06C0809144
:10080000E8008B778093E80004C080919502811105
:10081000F2CF0895809195028823D9F38091E80062
:1008200080FFF8CF8091E8008E77ECCF982F9093DF
:10083000E900242F762F50E0891731F07091EC00F9
:100840002091ED005091F00021FD07C09F5F97308F
:1008500071F78093E90081E008953091EB003E7FCD
:100860003093EB003091ED003D7F3093ED003091FF
:10087000EB0031603093EB007093EC002093ED00BF
:100880005093F0002091EE0027FDE0CF80E0089526
:100890000F931F93CF93DF93CDB7DEB7AA970FB611
:1008A000F894DEBF0FBECDBFEAE0F1E082E191E057
:1008B0002091F10021938E179F07D1F78091940228
:1008C0008823C1F080910B018130A1F480910A014D
:1008D000813A81F48091E800877F8093E80064E1A9
:1008E00070E080E892E00E9472038091E8008B77CC
:1008F0008093E8008091E80083FF44C010910A01D2
:1009000090910B019A3008F03DC0E92FF0E0E557D7
:10091000FB4F0C947F0F9504BB04C204BB04C204BC
:100920001A053C05C20443065006103889F01238F7
:1009300049F580910E018F70873020F58093E90092
:100940008091EB0085FB882780F91092E90006C0B2
:1009500080911C0190911D01911182609091E8009D
:10096000977F9093E8008093F1001092F1008091BE
:10097000E8008E772EC0812F8D7F21F41123D9F0CE
:10098000123061F18091E80083FF0AC08091E80095
:10099000877F8093E8008091EB0080628093EB007A
:1009A000AA960FB6F894DEBF0FBECDBFDF91CF91F0
:1009B0001F910F91089580910C01813019F79330A8
:1009C00009F080E080931D011092E9008091E80019
:1009D000877F8093E8000E94F703D4CF80910C01B9
:1009E0008111F2CF80910E018F702FEF280F2630EA
:1009F00048F68093E9002091EB0020FFE5CF93308B
:100A000031F48091EB0080628093EB00DDCF909118
:100A1000EB0090619093EB0021E030E001C0220FE9
:100A20008A95EAF72093EA001092EA008091EB00A1
:100A30008860EACF1111A6CF10910C011F77809129
:100A4000E3008078812B8093E3008091E800877F2A
:100A50008093E8000E94F7038091E80080FFFCCFBC
:100A60008091E30080688093E30083E0111101C06E
:100A700082E08093950286CF1058123008F082CF22
:100A800080910C0190910D018C3D23E09207A1F51E
:100A900083E08A838AE289834FB7F894DE01139654
:100AA00020E03EE051E2E32FF0E050935700E49164
:100AB00020FF03C0E295EF703F5FEF708E2F90E054
:100AC000EA30C0F0C7968D939D932F5F243159F77C
:100AD0004FBF8091E800877F8093E8006AE270E072
:100AE000CE0101960E9472038091E8008B7780937B
:100AF000E80048CFC096E7CF292F332723303105B0
:100B000009F44CC088F42130310509F43EC022308C
:100B1000310509F037CF80911B0181117BC089E23B
:100B200090E0E6EDF1E00CC02132310509F468C037
:100B300086E590E0EEEBF0E02232310509F022CFBD
:100B40002091E800277F2093E80020911001309148
:100B500011018217930708F49C0140E0211531052B
:100B600009F05DC041115BC08091E80082FDBCCFFF
:100B700080919502882309F4B7CF853009F4B4CF6A
:100B80008091E80083FFF0CFAFCF80911B018111EE
:100B90003CC082E190E0E4E1F1E0D2CF99278130DE
:100BA0009105D1F070F08230910509F1039709F0B9
:100BB000E9CEE6E2F1E0E4918E2F90E0E6E2F1E0AA
:100BC00007C0E2EDF1E0E4918E2F90E0E2EDF1E07C
:100BD000009709F4D7CEB4CF80911B01E6EBF1E08A
:100BE000811102C0E8E9F1E0849190E0F1CF8091B9
:100BF0001B01E6E5F1E08111F7CFE0E3F1E0F4CF8E
:100C000089E090E0E8EEF1E09BCF82E190E0ECEA51
:100C1000F0E096CF89E990E0EFEFF1E091CF80919D
:100C20009502882309F460CF853009F45DCF809167
:100C3000E80083FD59CF8091E80082FD95CF809137
:100C4000E80080FF8BCF8091F3009091F20089271C
:100C5000982789272115310519F08034910558F01E
:100C600041E08034910509F040E08091E8008E7702
:100C70008093E80073CF44914093F1003196215066
:100C800031090196E7CF103809F07CCE8091E80059
:100C9000877F8093E80080911E018093F10067CEEA
:100CA000111170CE00910C01023008F06BCE8091D2
:100CB000E800877F8093E80000931E010E94F703FD
:100CC0000023F9F084E080939502809194028111D1
:100CD0001EC042E360EC82E00E94160420E430E093
:100CE00088E090E01F5F880F991F82179307D0F369
:100CF000412F4295407F426061EC81E00E941604E2
:100D000041CE8091E30087FDDDCF81E0DCCF42E280
:100D100061EC83E00E94160424E130E0E1CFFF9211
:100D20000F931F93CF93DF93EC018B01FB01F080B6
:100D30000E94690FF81621F06F2DCE010E94710FED
:100D4000F801F1802196CE010E94690FF81621F07A
:100D50006F2DCE010E94710FC801DF91CF911F91BD
:100D60000F91FF9008950F931F93CF93DF938C0102
:100D7000EB010E94690F8883C80101960E94690FE8
:100D80008983CE01DF91CF911F910F9108950E9429
:100D9000850F1F920F920FB60F9211242F933F933E
:100DA0008F939F93AF93BF93809113019091140100
:100DB000A0911501B09116013091120123E0230F8B
:100DC0002D3758F50196A11DB11D20931201809376
:100DD000130190931401A0931501B0931601809113
:100DE000170190911801A0911901B0911A01019673
:100DF000A11DB11D8093170190931801A0931901B3
:100E0000B0931A01BF91AF919F918F913F912F9114
:100E10000F900FBE0F901F90189526E8230F029693
:100E2000A11DB11DD2CF1F920F920FB60F921124A8
:100E30002F933F934F935F936F937F938F939F93E2
:100E4000AF93BF93CF93EF93FF93C091E900CF701F
:100E50008091EC001092E9008091F000877F8093F0
:100E6000F00078940E9448041092E9008091F0000C
:100E700088608093F000C093E900FF91EF91CF91DB
:100E8000BF91AF919F918F917F916F915F914F91A2
:100E90003F912F910F900FBE0F901F9018951F92AA
:100EA0000F920FB60F9211242F933F934F935F939E
:100EB0006F937F938F939F93AF93BF93EF93FF9322
:100EC0008091E10082FF09C08091E20082FF05C0AD
:100ED0008091E1008B7F8093E1008091DA0080FFB8
:100EE00017C08091D80080FF13C08091DA008E7FF8
:100EF0008093DA008091D90080FF8CC080E189BDA9
:100F000082E189BD09B400FEFDCF81E080939502A6
:100F10008091E10080FF17C08091E20080FF13C044
:100F20008091E2008E7F8093E2008091E2008061F8
:100F30008093E2008091D80080628093D80019BC31
:100F400085E0809395028091E10084FF27C0809125
:100F5000E20084FF23C080E189BD82E189BD09B43C
:100F600000FEFDCF8091D8008F7D8093D8008091C6
:100F7000E1008F7E8093E1008091E2008F7E80937C
:100F8000E2008091E20081608093E20080911E0186
:100F9000882309F443C084E0809395028091E100A6
:100FA00083FF27C08091E20083FF23C08091E1008E
:100FB000877F8093E10082E08093950210921E016A
:100FC0008091E1008E7F8093E1008091E2008E7F2E
:100FD0008093E2008091E20080618093E20042E32E
:100FE00060E080E00E9416048091F00088608093A9
:100FF000F000FF91EF91BF91AF919F918F917F9101
:101000006F915F914F913F912F910F900FBE0F9075
:101010001F90189519BC109295027ACF8091E30029
:1010200087FD02C081E0B8CF83E0B6CFFC01128219
:101030001382148215828AE090E09783868310865B
:1010400086E091E091838083118A0895CF93DF93A6
:1010500000D000D000D01F92CDB7DEB7789484B511
:10106000826084BD84B5816084BD85B5826085BDA4
:1010700085B5816085BD80916E00816080936E0032
:101080001092810080918100826080938100809124
:1010900081008160809381008091800081608093D5
:1010A00080008091910082608093910080919100F6
:1010B0008160809391008091900081608093900086
:1010C0008091C10084608093C1008091C1008260E2
:1010D0008093C1008091C10081608093C1008091A4
:1010E000C30081608093C3008091C00082608093C0
:1010F000C0008091C20081608093C20080917A001C
:10110000846080937A0080917A00826080937A0074
:1011100080917A00816080937A0080917A00806863
:1011200080937A00109255026AE572E090E080E0C8
:101130000E94B30682E090E00E94690F8093220132
:1011400060E672E084E090E00E94B30660E071E047
:1011500086E090E00E94B30660E271E088E090E0F3
:101160000E94B306809120019091210110E0029726
:1011700028F0109221011092200111E089E00E94D4
:10118000BB01892B69F48091200190912101019785
:1011900039F081E090E0909321018093200111E0EB
:1011A00087E00E94BB01892B91F4809120019091EE
:1011B0002101892B09F41AC61092210110922001F5
:1011C00060E271E088E090E00E948F0602C0111199
:1011D000F7CF8091200190912101019709F008C675
:1011E00067E070E083E492E00E94AF0269E070E0A3
:1011F00081E392E00E94AF0266E070E08FE192E04E
:101200000E94AF0268E070E08DE092E00E94AF02C1
:101210006EE070E08BEF91E00E94AF026AE070E058
:1012200089EE91E00E94AF026FE070E087ED91E0FF
:101230000E94AF0260E170E085EC91E00E94AF0295
:1012400065E170E083EB91E00E94AF0263E170E042
:1012500081EA91E00E94AF0264E170E08FE891E0E2
:101260000E94AF0262E170E08DE791E00E94AF0260
:1012700065E070E08BE691E00E94AF0263E070E011
:1012800089E591E00E94AF0261E070E087E491E0BF
:101290000E94AF0262E070E085E391E00E94AF023D
:1012A00070E060E083E291E00E94AF0281E090E0B4
:1012B00090934A02809349029093380280933702B8
:1012C0009093260280932502909314028093130238
:1012D00090930202809301029093F0018093EF01BA
:1012E0009093DE018093DD019093CC018093CB013C
:1012F0009093BA018093B9019093A8018093A701BC
:10130000909396018093950190938401809383013B
:1013100090937201809371019093600180935F01BB
:1013200090934E0180934D0190933C0180933B013B
:1013300090932A01809329010E946A024B015C016B
:10134000E4EFCE2EDD24D394E12CF12C0E946A022E
:10135000681979098A099B09683E734081059105DE
:10136000A8F321E0C21AD108E108F10888EE880E3E
:1013700083E0981EA11CB11CC114D104E104F10446
:1013800029F70091220182E00E94BB01892B09F01C
:1013900079C31092220110912201011759F082E0C5
:1013A00090E00E94690F181729F0612F82E090E009
:1013B0000E94710F0091000110910101E090600204
:1013C000F090610280E00E94BB01892B41F41092F1
:1013D000010110920001109261021092600285E0FA
:1013E0000E94BB01892B61F481E090E090930101A0
:1013F0008093000183E090E090936102809360020B
:1014000083E00E94BB01892B51F481E090E090932E
:10141000010180930001109261021092600280919C
:10142000600290916102E816F90631F060E672E020
:1014300084E090E00E948F0680910001909101016C
:101440000817190731F060E071E086E090E00E9433
:101450008F06809122018093940280931B0184B7B0
:10146000877F84BF0FB6F894A8958091600088614B
:1014700080936000109260000FBE80E830E020E0B2
:101480000FB6F89480936100209361000FBE8091A5
:10149000D8008F7E8093D8008091D70081608093A0
:1014A000D70084E082BF81E080931F018091D80043
:1014B0008E7F8093D8001092E2001092DA00109292
:1014C000E1008091D8008F778093D8008091D80078
:1014D00080688093D8008091D8008F7D8093D80059
:1014E00019BC1092950210921E0110921D011092CB
:1014F0001C018091E0008B7F8093E0008091D800F8
:1015000081608093D80042E360E080E00E9416048E
:101510008091E1008E7F8093E1008091E200816004
:101520008093E2008091E20088608093E2008091E5
:10153000E0008E7F8093E0008091D80080618093EE
:10154000D8007894CC24C394DC2CAA24AA945EEF0F
:10155000B52E62E0462E512C66246394712C0E94B5
:101560008F0283E492E00E94CC0281E392E00E9429
:10157000CC028FE192E00E94CC028DE092E00E94CA
:10158000CC0230914B022091390290912702809138
:10159000150232FD06C022FD04C092FD02C082FF8A
:1015A00010C03095317030935C02209521702093EB
:1015B0005D029095917090935E028095817080930A
:1015C0005F028BEF91E00E94CC02882331F08BEF19
:1015D00091E00E949B028093660289EE91E00E9456
:1015E000CC02882331F089EE91E00E949B02809327
:1015F000670287ED91E00E94CC02882331F087EDED
:1016000091E00E949B028093680285EC91E00E9429
:10161000CC02882331F085EC91E00E949B028093FC
:10162000690283EB91E00E94CC02882331F083EBC6
:1016300091E00E949B0280936A0281EA91E00E94FD
:10164000CC02882331F081EA91E00E949B028093D2
:101650006B028FE891E00E94CC02882331F08FE882
:1016600091E00E949B0280936C028DE791E00E94C2
:10167000CC02882331F08DE791E00E949B02809399
:101680006D028BE691E00E94CC02882331F08BE65C
:1016900091E00E949B028093740289E591E00E9490
:1016A000CC02882331F089E591E00E949B0280936F
:1016B000750287E491E00E94CC02882331F087E430
:1016C00091E00E949B0280936E0285E391E00E946C
:1016D000CC02882331F085E391E00E949B02809345
:1016E0006F0283E291E00E94CC02882331F083E212
:1016F00091E00E949B028093760280916E02882383
:1017000029F180916F02882309F18091550281119E
:10171000D6C120915A0230915B0280915E028823EB
:1017200009F4BAC170925B0260925A0280915A0227
:1017300090915B022817390731F06AE572E090E07A
:1017400080E00E948F0681E08093550219821A8200
:101750001B821C8280900001909001010091600228
:101760001091610228E5E22E22E0F22E9E012C5F0C
:101770003F4F40915F02BE016D5F7F4F80915E02DF
:101780000E94310336E5E32E32E0F32E84019E0100
:101790002E5F3F4F40915D02BE016F5F7F4F809192
:1017A0005C020E94310320915A0230915B028981D0
:1017B00090E82115310509F485C12230310509F081
:1017C000C7C19093700290937102909372029093AC
:1017D0007302809362028A81809363028B8180937B
:1017E00064028C8180936502809162022091940250
:1017F000222309F4EDC1882329F0809182028160BF
:101800008093820280916302882329F08091820272
:1018100082608093820280916402882329F0809103
:10182000820284608093820280916502882329F07D
:1018300080918202886080938202309170023C9D88
:10184000C0013D9D900D1124905890938702809384
:101850008602309171023A9DC0013B9D900D11248A
:10186000815090489093890280938802309172024F
:101870003C9DC0013D9D900D1124905890938B028A
:1018800080938A02309173023A9DC0013B9D900D76
:1018900011248150904890938D0280938C02809106
:1018A0006E02882329F080918202806180938202F7
:1018B00080916F02882329F0809182028062809358
:1018C000820280917402882329F0809182028064D0
:1018D0008093820280917502882329F08091820290
:1018E00080688093820280916602882329F080912B
:1018F000830280628093830280916702882329F0AB
:1019000080918302806180938302809168028823A2
:1019100029F080918302806880938302809169021C
:10192000882329F0809183028064809383028091D0
:101930006A02882329F08091830281608093830268
:1019400080916B02882329F08091830282608093CA
:10195000830280917602882329F08091830284603B
:101960008093830280916C02882319F08FEF80931B
:10197000840280916D02882319F08FEF8093850295
:1019800080919502843009F05EC094E1292E312CBB
:1019900000E812E021112BC082E08093E9008091E1
:1019A000E80082FF1FC08091E80085FF16C00E94FA
:1019B000C803811112C007E010E0CE0101967C013E
:1019C0008091E80085FDEFC18091E8008B778093DE
:1019D000E8000E94C803882399F38091E8008B7780
:1019E0008093E80088E0282E312C08E712E081E09F
:1019F0008093E9008091E80080FF25C00E94C80321
:101A000081110FC0710148018091E80085FDD5C1A9
:101A10008091E8008E778093E8000E94C8038823B5
:101A200099F38091E8008E778093E800A10170E03F
:101A300060E0C8010E948A0F80919402882319F007
:101A400084E1F801818380919502882399F01091B7
:101A5000E9001F708091EC0080FFBAC180E8182B6C
:101A60001092E9008091E80083FD0E9448041F70F5
:101A70001093E90080E090E0892B09F470CD0E947A
:101A800000006DCD81E00E94BB01892B09F083CC61
:101A900081E0809322017FCC80915F02882329F02E
:101AA00010925B0210925A0241CE80915C02882310
:101AB00009F43CCE50925B0240925A0237CE10920B
:101AC000550244CE9093700290937102109262027C
:101AD000109263021092640210926502882389F0CA
:101AE0009C81992331F0109273028FEF80937202E0
:101AF0007BCE9B81992329F010927302109272027F
:101B000073CE9A81992309F465C19C81992321F0B0
:101B10008FEF80937302EACF9B81992321F08FEF9F
:101B200080937302EBCF882321F01092730280E838
:101B3000DDCF8FEF80937302FACF8C81882321F061
:101B40008FEF809372024EC180E8809372024BC186
:101B50009093720290937302109262021092630249
:101B60001092640210926502882349F09C819923A7
:101B700031F0109271028FEF8093700235CE9A810E
:101B8000992309F43EC19C81992321F08FEF809322
:101B90007102F2CF9B81992309F43FC18FEF8093AB
:101BA00071021092700220CE992319F010927102E6
:101BB000F8CF1092710280E8DFCF8C81882321F06A
:101BC0008FEF8093700225C180E88093700222C15C
:101BD000882341F090916502992321F081E0809360
:101BE0007A0217C090916302992309F41CC1909165
:101BF0006502992311F083E0F2CF9091640299235A
:101C000009F41FC185E0EBCF87E09111E8CF109276
:101C10007A028091700280937B028091710280939E
:101C20007C028091720280937D0280917302809386
:101C30007E0280916602882349F08091780290911B
:101C40007902846090937902809378028091670290
:101C5000882349F080917802909179028260909374
:101C600079028093780280916802882349F08091FC
:101C7000780290917902886090937902809378023B
:101C800080916902882349F08091780290917902CD
:101C90008160909379028093780280916A02882310
:101CA00049F0809178029091790280619093790255
:101CB0008093780280916B02882349F080917802AA
:101CC000909179028062909379028093780280915A
:101CD0006C02882349F080917802909179028064A7
:101CE000909379028093780280916D02882349F065
:101CF0008091780290917902806890937902809324
:101D0000780280916E02882349F080917802909148
:101D100079029260909379028093780280916F02A9
:101D2000882349F080917802909179029160909394
:101D300079028093780280917602882349F080911D
:101D40007802909179029061909379028093780261
:101D500080917402882349F08091780290917902F1
:101D60009460909379028093780280917502882321
:101D700049F080917802909179029860909379026D
:101D80008093780280917702882309F4F9CD8091BD
:101D90007802909179029062909379028093780210
:101DA000EFCD88E01CCF8091F100F70181937F0196
:101DB0000150110909F004CE10CEF40181914F01B8
:101DC0008093F100F1E0EF1AF10809F01DCE29CE61
:101DD00080E045CE8111A9CE8B81882309F4ADCE58
:101DE0001092720280E880937302FECC1111E8C950
:101DF00069E070E083E492E00E94AF0267E070E087
:101E0000F7C99B818111D0CE992309F4D6CE1092C7
:101E1000700280E880937102E7CC8111CACE8FEF07
:101E200080937102C8CE909164028111EDCE86E05C
:101E30009111D5CE80916502882309F4B2CF82E05A
:101E4000CECE8111E4CE84E0CACE83E492E00E943B
:101E5000160881E392E00E9416088FE192E00E944A
:101E600016088DE092E00E9416088BEF91E00E9428
:101E7000160889EE91E00E94160887ED91E00E9415
:101E8000160885EC91E00E94160883EB91E00E9411
:101E9000160881EA91E00E9416088FE891E00E94FE
:101EA00016088DE791E00E9416088BE691E00E94EB
:101EB000160889E591E00E94160887E491E00E94E7
:101EC000160885E391E00E94160883E291E00C94E5
:101ED0001608F999FECF92BD81BDF89A992780B571
:101EE0000895262FF999FECF1FBA92BD81BD20BD5E
:101EF0000FB6F894FA9AF99A0FBE01960895EE0F6C
:101F0000FF1F0590F491E02D099481E090E0F89492
:101F10000C94910FDC0101C06D9341505040E0F7EB
:061F20000895F894FFCFC4
:0A1F2600010000000000A5026602A1
:00000001FF
