:100000000C941A010C9442010C9442010C9442018C
:100010000C9442010C9442010C9442010C94420154
:100020000C9442010C9442010C943D060C94AC06D5
:100030000C9442010C9442010C9442010C94420134
:100040000C9442010C9442010C9442010C94420124
:100050000C9442010C9442010C9442010C94DE0871
:100060000C9442010C9442010C9442010C94420104
:100070000C9442010C9442010C9442010C944201F4
:100080000C9442010C9442010C9442010C944201E4
:100090000C9442010C9442010C9442010C944201D4
:1000A0000C9442010C9442010C94420100000000A7
:1000B0002300260029002C002F0000000002000968
:1000C0000F0000030401000C00000000000000000D
:1000D0000000000000000000080B00020202000007
:1000E000090400000102020000052400100105249B
:1000F000010101042402060524060001070581030D
:1001000010004009040100020A0000000705020275
:1001100040000007058302400000040309041201A7
:100120000002EF0201404F1B069200010102030191
:10013000537061726B46756E00537061726B4675D9
:100140006E2050726F204D6963726F0005010905C2
:10015000A101850115002501350045017501950DA9
:1001600005091901290D8102950381010501250762
:10017000463B017504950165140939814265009576
:1001800001810126FF0046FF0009300931093209CB
:10019000357508950481020600FF0920092109220E
:1001A0000923092409250926092709280929092AD3
:1001B000092B950C81020A21269508B1020A2126F5
:1001C000910226FF0346FF03092C092D092E092F52
:1001D000751095048102C000000000250028002B46
:1001E000002E00310000000000240027002A002D0E
:1001F00000300004040404040304050202020204A3
:1002000003020202020606060606060404020202B1
:100210000404040802011040804010204080408007
:10022000080204018040201002011080102040408C
:100230002000280911241FBECFEFDAE0DEBFCDBFBA
:1002400011E0A0E0B1E0E0EDF9E102C005900D920F
:10025000A233B107D9F722E0A2E3B1E001C01D92B9
:10026000A830B207E1F711E0CAE1D1E004C021975C
:10027000FE010E94D30CC931D107C9F70E943D0984
:100280000C94E60C0C940000CF93DF93FC01818169
:100290009091FB01482F490F5527551F48305105B4
:1002A0009CF5A281B381109709F527EF31E03383E4
:1002B000228320812093F9018093FA018091FC012F
:1002C000820F80832091FD01A22FB091FE018A2F21
:1002D000821B8917E8F481813D91C82FD0E0C45F6B
:1002E000DE4F38838F5F8183F2CFD90118962D912D
:1002F0003C91199721153105C1F727EF31E0199687
:100300003C932E931897D5CF80E0DF91CF9108953D
:1003100081E0FBCFCF93DF9390E0FC01EE5EFD4FD9
:1003200024918D509E4FFC0184918823C1F090E070
:10033000880F991FFC01EB51FE4FC591D491FC0130
:10034000E952FE4FA591B4919FB7F8943881822F5E
:10035000809583238883EC91E22BEC939FBFDF9100
:10036000CF910895FC018091F601882311F13FB7E8
:10037000F89482E08093E9002091F200822F90E0CF
:100380001816190614F481E090E0882339F02898B3
:1003900044E64093F5014091F1004083222339F077
:1003A0002091F200211103C02BE62093E8003FBF0B
:1003B00008958FEF9FEF0895CF93DF931F92CDB7EE
:1003C000DEB76983DC01ED91FC910280F381E02DC1
:1003D00041E050E0BE016F5F7F4F09950F90DF91C4
:1003E000CF91089583E08093E9008091F200882303
:1003F00019F08AE38093E8000895CF93DF931F926A
:10040000CDB7DEB7FC018485958597FD08C02FEF39
:100410003FEF358724870F90DF91CF910895CE016C
:1004200001960E94B201019719F4898190E0F3CFFF
:100430008FEF9FEFF0CF0F931F93CF93DF931F9218
:10044000CDB7DEB78C01FC018485958597FF0BC085
:10045000CE0101960E94B201019771F4898190E06A
:10046000F80195878487F801848595850F90DF9141
:10047000CF911F910F9108958FEF9FEFF1CFFC0166
:100480008485958597FD0BC09FB7F89482E0809393
:10049000E9008091F2009FBF90E0019608959FB718
:1004A000F89482E08093E9008091F2009FBF90E091
:1004B0000895882361F0662351F081E06091510135
:1004C000709152016230710509F480E060E04423CC
:1004D00001F12223F1F020915101309152012D7F41
:1004E000232BE1F03091530140915401311103C0AD
:1004F00020E0442329F091E0242F2927432F492786
:10050000E0915501F0915601309759F0319771F112
:1005100008954093530120935401F2CF20E040E02E
:10052000EFCF8823B9F1211106C041113CC01092D0
:100530008C0190E004C091E090938C019FEF909328
:10054000910141954093920181958093930161952A
:1005500060939401089592E0662371F393E0ECCFE9
:1005600094E0411195E090938C01E3CF90E041112C
:1005700004C09FEF211101C090E890938D0181117B
:1005800005C08FEF611103C080E801C080E0809357
:100590008E0108952111DFCF6111E2CF9FE0442346
:1005A00011F396E0E0CF97E06623E9F2DBCF982FD6
:1005B000862F692F0C9459024091490150914A01AC
:1005C000209147013091480142175307B4F49091AC
:1005D000E8009570E1F39091E80092FD19C08093D6
:1005E000F1008091490190914A0101968F739927FA
:1005F000892B19F48EEF8093E80080914901909146
:100600004A01019690934A018093490181E008953F
:1006100080E00895EF92FF920F931F93CF93DF93A3
:10062000F82E192FE62E042F81E0860F880F0E94E6
:10063000DC0283E00E94DC02CF2DD12FEC0EFD2ED8
:10064000F11CCE15DF05B9F007FF13C0FE01849140
:100650000E94DC02182F80E00E94DC028123219698
:100660008111EFCFDF91CF911F910F91FF90EF900C
:1006700008958881EDCF81E0F5CFDF92EF92FF9270
:100680000F931F93CF93DF93D82E8A01EB017B0149
:10069000E40EF51ECE15DF0559F0D7FE12C0FE019F
:1006A00084910E94DC0221968111F4CF0FEF1FEF9D
:1006B000C801DF91CF911F910F91FF90EF90DF90D4
:1006C00008958881EECF2FB7F89487708093E90062
:1006D0009091E800892F807295FF04C09091F200FC
:1006E00080E4891B2FBF089583E00E94630390E09C
:1006F0000895615030F02091F100FC0120830196B3
:10070000F8CF289884E68093F501089580913F0101
:1007100081110DC082E080933B0184E080933C0115
:1007200010923E0110923D0181E080933F018BE3E6
:1007300091E008950F931F93CF93DF931F92CDB74E
:10074000DEB782E0898342E450E068ED70E080E843
:100750000E943D030E948603DC0112960D911C91BC
:100760000115110589F0D801ED91FC910280F3810A
:10077000E02DBE016F5F7F4FC801099597FD04C052
:10078000F80100851185ECCF89810F90DF91CF9121
:100790001F910F910895282F30E0F901E654FF4F83
:1007A0009491F901EE5EFD4F84912D503E4FF90179
:1007B0002491222309F45BC09923E9F091509F30E2
:1007C000D0F4E92FF0E0E951FC4F0C94D30C120463
:1007D0001604F6030A040E04FB03FB03FB031904CF
:1007E0001F04230427042D04FB033104909180008F
:1007F0009F7790938000E22FF0E0EE0FFF1FE4550B
:10080000FF4FA591B491EC91E82381E090E089F548
:1008100080E00895909180009F7DEBCF90918000C3
:10082000977FE7CF94B59F7794BDE5CF94B59F7D33
:10083000FBCF909190009F7790939000DCCF9091A8
:1008400090009F7DF9CF90919000977FF5CF909188
:10085000C0009F779093C000CECF9091C0009F7D45
:10086000F9CF9091C200977F9093C200C4CF80E0EF
:1008700090E008953FB7F894809137019091380146
:10088000A0913901B0913A0126B5A89B05C02F3F30
:1008900019F00196A11DB11D3FBFBA2FA92F982FA6
:1008A0008827BC01CD01620F711D811D911D42E0A1
:1008B000660F771F881F991F4A95D1F708958F9269
:1008C0009F92AF92BF92CF92DF92EF92FF924B0135
:1008D0005C010E943A046B017C010E943A046C198D
:1008E0007D098E099F09683E734081059105A8F333
:1008F00021E0821A9108A108B10888EEC80E83E0B1
:10090000D81EE11CF11C81149104A104B10429F743
:10091000FF90EF90DF90CF90BF90AF909F908F901F
:1009200008957F928F929F92AF92BF92CF92DF9263
:10093000EF92FF920F931F93CF93DF93C82E8B01FB
:100940007A018091F601811110C08FEF9FEFDF9146
:10095000CF911F910F91FF90EF90DF90CF90BF90BC
:10096000AF909F908F907F90089580914D0180FF70
:1009700005C08091E00082608093E000CE2DDF2DE5
:10098000D12C8AEFB82E8C2D8770982E8C2D8072EA
:10099000882E8C2D8074782E9AE3A92E209719F436
:1009A000DD2009F452C08C2D0E94630381110AC01E
:1009B000BA94BB2051F261E070E080E090E00E94C8
:1009C0005F04ECCF8C171D0611F00CF08C2F9FB735
:1009D000F8949092E9002091E80025FD02C09FBFA5
:1009E000DDCF282F30E0C21BD30B882029F08150A7
:1009F000A0F01092F100FBCFF801C7FC0AC08150B3
:100A000050F041914093F100FACF44914093F100AE
:100A100031968150D0F7020F131FDD2021F0A092F4
:100A2000E800D12CDCCF8091E80085FD07C0A092C2
:100A3000E800DD24D394209791F2F3CF209779F644
:100A4000772069F2A092E800CACF5D9884E680938F
:100A50004C01C7017CCFCF93DF93EC0180910B0158
:100A6000882331F083E00E9491041816190634F0AF
:100A700081E090E09B838A8380E090E0DF91CF91DA
:100A80000895DC01FB0112962C91129784819581C7
:100A90002817190641F491818081813A31F49D7FB4
:100AA00081E0913009F080E008958132E1F79B30D8
:100AB00029F482811F968C9381E008959A3099F7EA
:100AC000828150968C93F8CFDC01FB0188E480830F
:100AD00089E4818384E482831D969C911D979F7095
:100AE0009F5B93831D968D919C9124E096958795AD
:100AF0002A95E1F78F708F5B848385E00895EF92EC
:100B0000FF920F931F93CF93DF93FB012081213836
:100B100071F52381223259F5DC0112964C91248122
:100B200035814217130619F5EC010B851C85F12C54
:100B3000E12C0115110589F0F8014481558162818C
:100B4000738180E80E943D038F3F980749F0E80ECB
:100B5000F91ED8010D911C91ECCF81E08F87C70160
:100B6000DF91CF911F910F91FF90EF90089590E04A
:100B700080E0F6CFCF93DF93CDB7DEB769970FB69E
:100B8000F894DEBF0FBECDBFFC01DB018C918F5FFF
:100B90008C939E012D5F3F4F8DE0D9011D928A9568
:100BA000E9F729E0298384E08A8391E09D8383E04B
:100BB0008E832A8721E22B879C879D879F8722E24D
:100BC000288B27E02B8B25E02C8B8E8B20E430E0CC
:100BD000388F2F8B998F82818B8395858685998B12
:100BE0008A8B838180688D8B49E150E0BE016F5F05
:100BF0007F4F80E00E943D0369960FB6F894DEBFF8
:100C00000FBECDBFDF91CF910895FF920F931F9339
:100C1000CF93DF93EC018B01FB01F0800E94BD0CB0
:100C2000F81621F06F2DCE010E94C50CF801F1805D
:100C30002196CE010E94BD0CF81621F06F2DCE0139
:100C40000E94C50CC801DF91CF911F910F91FF90B9
:100C500008950F931F93CF93DF938C01EB010E94B4
:100C6000BD0C8883C80101960E94BD0C8983CE010A
:100C7000DF91CF911F910F9108951F920F920FB6A0
:100C80000F9211248F939F938091E1009091E10046
:100C9000937F9093E10083FF0FC01092E90091E0F1
:100CA0009093EB001092EC0092E39093ED00109281
:100CB000F60198E09093F00082FF22C093E09093B9
:100CC000E9009091F200992319F09AE39093E800DB
:100CD00090914C01992341F090914C019150909347
:100CE0004C01911101C05D9A9091F501992341F059
:100CF0009091F50191509093F501911101C0289ABE
:100D000084FF18C08091E2008E7E81608093E200B3
:100D10008091E1008F7E8093E10080914D018E7E75
:100D2000806180934D019F918F910F900FBE0F9026
:100D30001F90189580FFF7CF8091E2008E7E806132
:100D40008093E2008091E1008E7E8093E1008091AB
:100D50004D018E7E8160E5CF1F920F920FB60F92EC
:100D60001124CF92DF92EF92FF920F931F932F9354
:100D70003F934F935F936F937F938F939F93AF9323
:100D8000BF93EF93FF93CF93DF93CDB7DEB76C970D
:100D9000DEBFCDBF1092E9008091E80083FF25C03F
:100DA00068E0CE0145960E94790382EF8093E800C7
:100DB0008D8987FF39C09091E80090FFFCCF982F74
:100DC000907609F034C19E894F89588D2F89F88C0F
:100DD000911131C0803861F580914E018093F1000E
:100DE0001092F1008EEF8093E8006C960FB6F894A5
:100DF000DEBF0FBECDBFDF91CF91FF91EF91BF91CD
:100E0000AF919F918F917F916F915F914F913F91A2
:100E10002F911F910F91FF90EF90DF90CF900F9047
:100E20000FBE0F901F9018959EEF9093E800C7CFCC
:100E30001092F100D5CF913059F48111D3CF4130C8
:100E4000510581F680914E018D7F80934E01CACF6E
:100E5000933049F48111C6CF4130510519F6809184
:100E60004E018260F2CF953041F48091E80080FF1E
:100E7000FCCF20682093E300B5CF963009F0A9C0DD
:100E80000B8D1C8D22E01092E90010924A01109205
:100E90004901F2122EC010924801109247010E949F
:100EA0009A031F8299E09983FA8291E09E8390EAE7
:100EB00098879AEF99872091490130914A01275FDD
:100EC0003F4F3C832B838D831092E90010924A019F
:100ED00010924901109348010093470149E050E006
:100EE000BE016F5F7F4F80E00E943D030E949A0326
:100EF00079CF10934801009347010E948603DC01DB
:100F000012960D911C910115110509F451C1D801DA
:100F1000ED91FC910480F581E02DBE016B5E7F4F69
:100F2000C8010995009709F03EC1F80100851185B7
:100F3000EACFF3E0FF120EC08F89882309F440C086
:100F4000823061F440E862E189E391E00E940A03A3
:100F5000811148CF81E28093EB0047CF813029F4A3
:100F600040E868E080E391E0F1CF833099F70E9498
:100F70008603DC011296ED90FC908E010F5F1F4FEF
:100F80006801E114F10479F0D701ED91FC9106803C
:100F9000F781E02DB801C7010995080F111DF70170
:100FA000E084F184EECFD8011C92F601019000207C
:100FB000E9F73197BF016C197D0940E0C601C6CF42
:100FC0006AE171E0FB01449150E080E80E943D033A
:100FD00009CF973009F4BECF983021F481E0809397
:100FE000F10000CF993009F0FDCE837009F0B2CF47
:100FF000EDE0F1E081E031E096E32191222371F010
:101000008093E9003093EB00DF0111972C9120933E
:10101000EC009093ED008F5F873079F78EE7809337
:10102000EA001092EA008F898093F601DBCE8B8D67
:101030009C8D1092E90010924A0110924901909300
:10104000480180934701898D811192C08E899D89C5
:10105000913A49F4813209F07DCF47E050E064E0F5
:1010600071E080E0B3CF913209F074CF833269F43C
:101070008F89988DB0E0A0E08093000190930101EA
:10108000A0930201B0930301ADCE803269F4809148
:10109000E80082FFFCCF67E084E091E00E947903E2
:1010A0008BEF8093E8009ECE823209F09BCE8F8931
:1010B00080930B01EEEFFFE7859194918B3F9C4D60
:1010C00051F1E0E0F8E08091040190910501A091D8
:1010D0000601B0910701803B9440A105B105F1F4F0
:1010E00080910B0180FD1AC0EE3F8AE0F80789F578
:1010F00087E797E7918380838091600080934B011D
:1011000088E19BE00FB6F894A895809360000FBE2D
:101110009093600067CEEEEFFAE0D5CF80819181A9
:101120008737974709F05ECEA89580916000886167
:101130008093600080914B0180936000EE3F2AE035
:10114000F20789F08091FE0A9091FF0A91838083D3
:1011500049CE808191818737980751F29093FF0A99
:101160008093FE0AC5CF1092FF0A1092FE0A3ACE73
:101170000E948603DC0112960D911C910115110548
:1011800009F4E8CED801ED91FC910190F081E02DB9
:10119000BE016B5E7F4FC8010995811123CEF80116
:1011A00000851185EBCF181619060CF41BCED2CE94
:1011B000F1E0FF12BECE6EE171E004CF1F920F92FC
:1011C0000FB60F9211242F933F938F939F93AF935A
:1011D000BF938091330190913401A0913501B0917A
:1011E00036013091320123E0230F2D3758F5019657
:1011F000A11DB11D209332018093330190933401DE
:10120000A0933501B0933601809137019091380158
:10121000A0913901B0913A010196A11DB11D8093B1
:10122000370190933801A0933901B0933A01BF91EF
:10123000AF919F918F913F912F910F900FBE0F9083
:101240001F90189526E8230F0296A11DB11DD2CF3D
:10125000E5EAF1E01382128288EE93E0A0E0B0E0CC
:1012600084839583A683B78383E291E0918380830F
:101270008FEF9FEF958784870895CF93DF931F9219
:10128000CDB7DEB7789484B5826084BD84B58160C3
:1012900084BD85B5826085BD85B5816085BD809141
:1012A0006E00816080936E001092810080918100B9
:1012B00082608093810080918100816080938100B1
:1012C0008091800081608093800080919100826095
:1012D0008093910080919100816080939100809132
:1012E00090008160809390008091C1008460809321
:1012F000C1008091C10082608093C1008091C100D3
:1013000081608093C1008091C30081608093C3009D
:101310008091C00082608093C0008091C200816093
:101320008093C20080917A00846080937A008091DB
:101330007A00826080937A0080917A008160809345
:101340007A0080917A00806880937A001092F6018A
:1013500010924E0110924D018091D70081608093D0
:10136000D70080EA8093D80089B5806189BD89B5AE
:10137000826089BD09B400FEFDCF61E070E080E0CD
:1013800090E00E945F048091D8008F7C8061809300
:10139000D8008091E000807F8093E0008091E100A0
:1013A0008E7E8093E1008DE08093E200559A209A32
:1013B00080915D01811113C0109258011092570164
:1013C0008CE491E090935A01809359018BE890E06E
:1013D00090935C0180935B0181E080935D0180913B
:1013E000650181112AC011E01093FB011093FC01EB
:1013F00081E092E09093FE018093FD011092000243
:101400001092FF0187E191E09093F8018093F7013A
:10141000109203021092020210920502109204022E
:10142000109306021093070281EC809301020E9440
:1014300086030E94440110936501E0910202F0913D
:101440000302309709F0D5C087E591E0909303023D
:1014500080930202809104029091050220915B0129
:1014600030915C01820F931F9093050280930402D8
:1014700089E00E948A0187E00E948A0186E00E943A
:101480008A0188E00E948A018AE00E948A018EE037
:101490000E948A018FE00E948A0180E10E948A01F5
:1014A00085E10E948A0184E10E948A0183E10E9411
:1014B0008A0182E10E948A0182E00E948A0181E021
:1014C0000E948A0185E00E948A0183E00E948A01CD
:1014D00080E00E948A0164EF71E080E090E00E9469
:1014E0005F0486E00E94CB03892B31F481E090E019
:1014F0009093560180935501EAE8F1E083E1DF0122
:101500001D928A95E9F78FE080938C0182E090E04C
:1015100090939E0180939D019093A00180939F01E1
:101520009093A2018093A1019093A4018093A301C1
:1015300080E880938D0180938E0180938F0180934A
:1015400090018BE1ADE6B1E001900D928A95E1F753
:10155000109254011092530161E571E090E080E037
:101560000E942906809151019091520110E0039749
:1015700028F0109252011092510111E080E00E9477
:10158000CB03892B69F4809151019091520102970C
:1015900039F082E090E0909352018093510111E084
:1015A00085E00E94CB03892B69F4809151019091D1
:1015B0005201019739F081E090E0909352018093BD
:1015C000510111E083E00E94CB03892BD9F4809173
:1015D000510190915201892BA9F010925201109261
:1015E000510161E571E090E080E00E9405060CC0C9
:1015F000FC01808191810097D9F787E591E0918383
:10160000808328CF1111EDCF89E592E09093890175
:10161000809388016FE471E082E090E00E942906E7
:1016200080914F019091500110E0029728F01092A4
:10163000500110924F0111E089E00E94CB03892BE9
:1016400069F480914F0190915001019739F081E048
:1016500090E09093500180934F0111E087E00E9449
:10166000CB03892B91F480914F0190915001892BEC
:1016700009F480C11092500110924F016FE471E0A3
:1016800082E090E00E94050602C01111F7CF809120
:101690004F0190915001019731F487ED92E09093C2
:1016A00089018093880180E0682E80E0782E2224D2
:1016B000239433243A9401E012E097E1E92E91E07B
:1016C000F92E10928B0110928A01109295011092BE
:1016D0009601109297011092980110929901109220
:1016E0009A0110929B0110929C01409088015090A9
:1016F000890188E00E94CB034C0186E00E94CB0365
:101700005C0187E00E94CB036C0189E00E94CB035F
:10171000FC0121E0892809F020E041E0AB2809F034
:1017200040E061E0CD2809F060E081E0EF2B09F0B6
:1017300080E0F201099580E10E94CB03892B59F4E6
:1017400080918A0190918B01816090938B018093AD
:101750008A01309298018AE00E94CB03892B59F4C8
:1017600080918A0190918B01826090938B0180938C
:101770008A01309297018EE00E94CB03892B59F4A5
:1017800080918A0190918B01846090938B0180936A
:101790008A01309296018FE00E94CB03892B59F485
:1017A00080918A0190918B01886090938B01809346
:1017B0008A013092950185E10E94CB03892B59F46F
:1017C00080918A0190918B01806190938B0180932D
:1017D0008A013092990183E10E94CB03892B59F44D
:1017E00080918A0190918B01806290938B0180930C
:1017F0008A0130929B0184E10E94CB03892B59F42A
:1018000080918A0190918B01806490938B018093E9
:101810008A0130929A0182E10E94CB03892B59F40C
:1018200080918A0190918B01806890938B018093C5
:101830008A0130929C0182E00E94CB03892B49F4FB
:1018400080918A0190918B01916090938B0180939C
:101850008A0181E00E94CB03892B49F480918A019F
:1018600090918B01926090938B0180938A0185E027
:101870000E94CB03892B49F480918A0190918B01BE
:10188000946090938B0180938A0183E00E94CB0344
:10189000892B49F480918A0190918B0198609093F3
:1018A0008B0180938A0180E00E94CB03892B49F44D
:1018B00080918A0190918B01906190938B0180932C
:1018C0008A014BE150E06AE871E08DE691E00E9408
:1018D000D90C892B09F447C080916501811125C07D
:1018E0002092FB012092FC011093FE010093FD0168
:1018F000109200021092FF01F092F801E092F701BD
:101900001092030210920202109205021092040239
:101910002092060220920702F1ECF09301020E944D
:1019200086030E94440120926501298241E050E033
:10193000BE016F5F7F4F8091FA010E94910497FD75
:1019400009C08091FA014BE150E06AE871E08064DF
:101950000E9491048BE1EAE8F1E0ADE6B1E001908C
:101960000D928A95E1F76114710409F4AACE0E94E0
:101970000000A7CE111182CE96CEF999FECF92BD6E
:1019800081BDF89A992780B50895262FF999FECF41
:101990001FBA92BD81BD20BD0FB6F894FA9AF99A8C
:1019A0000FBE01960895EE0FFF1F0590F491E02DF4
:1019B0000994FB01DC0104C08D910190801921F490
:1019C00041505040C8F7881B990B0895F894FFCFF9
:1019D000FFFFFFFF00E100000000000000C1808168
:1019E000000000000000004105BA057F0564050005
:1019F000000000DC012B057403F2013F02FD011B16
:021A00000200E2
:00000001FF
